{
  "contractName": "RebelsFund",
  "abi": [
    {
      "anonymous": false,
      "inputs": [
        {
          "indexed": false,
          "internalType": "string",
          "name": "message",
          "type": "string"
        },
        {
          "indexed": false,
          "internalType": "string",
          "name": "name",
          "type": "string"
        }
      ],
      "name": "SignatureAdded",
      "type": "event"
    },
    {
      "inputs": [
        {
          "internalType": "address",
          "name": "",
          "type": "address"
        }
      ],
      "name": "charity",
      "outputs": [
        {
          "internalType": "string",
          "name": "name",
          "type": "string"
        },
        {
          "internalType": "address",
          "name": "adr",
          "type": "address"
        },
        {
          "internalType": "uint256",
          "name": "monthAmount",
          "type": "uint256"
        },
        {
          "internalType": "uint256",
          "name": "recievedAmount",
          "type": "uint256"
        },
        {
          "internalType": "string",
          "name": "image",
          "type": "string"
        },
        {
          "internalType": "string",
          "name": "location",
          "type": "string"
        },
        {
          "internalType": "string",
          "name": "email",
          "type": "string"
        },
        {
          "internalType": "string",
          "name": "ytLink",
          "type": "string"
        },
        {
          "internalType": "bool",
          "name": "exist",
          "type": "bool"
        },
        {
          "internalType": "string",
          "name": "category",
          "type": "string"
        }
      ],
      "stateMutability": "view",
      "type": "function",
      "constant": true
    },
    {
      "inputs": [
        {
          "internalType": "address",
          "name": "",
          "type": "address"
        }
      ],
      "name": "user",
      "outputs": [
        {
          "internalType": "string",
          "name": "name",
          "type": "string"
        },
        {
          "internalType": "string",
          "name": "location",
          "type": "string"
        },
        {
          "internalType": "string",
          "name": "email",
          "type": "string"
        },
        {
          "internalType": "string",
          "name": "image",
          "type": "string"
        },
        {
          "internalType": "bool",
          "name": "exist",
          "type": "bool"
        },
        {
          "internalType": "string",
          "name": "country",
          "type": "string"
        },
        {
          "internalType": "string",
          "name": "region",
          "type": "string"
        },
        {
          "internalType": "string",
          "name": "dob",
          "type": "string"
        }
      ],
      "stateMutability": "view",
      "type": "function",
      "constant": true
    },
    {
      "inputs": [
        {
          "internalType": "address payable",
          "name": "receiver",
          "type": "address"
        }
      ],
      "name": "transferEther",
      "outputs": [],
      "stateMutability": "payable",
      "type": "function",
      "payable": true
    },
    {
      "inputs": [
        {
          "internalType": "string",
          "name": "name",
          "type": "string"
        },
        {
          "internalType": "uint256",
          "name": "monthAmount",
          "type": "uint256"
        },
        {
          "internalType": "string",
          "name": "image",
          "type": "string"
        },
        {
          "internalType": "string",
          "name": "location",
          "type": "string"
        },
        {
          "internalType": "string",
          "name": "email",
          "type": "string"
        },
        {
          "internalType": "string",
          "name": "ytLink",
          "type": "string"
        },
        {
          "internalType": "string",
          "name": "category",
          "type": "string"
        }
      ],
      "name": "signCharity",
      "outputs": [],
      "stateMutability": "nonpayable",
      "type": "function"
    },
    {
      "inputs": [
        {
          "internalType": "string",
          "name": "name",
          "type": "string"
        },
        {
          "internalType": "string",
          "name": "location",
          "type": "string"
        },
        {
          "internalType": "string",
          "name": "email",
          "type": "string"
        },
        {
          "internalType": "string",
          "name": "image",
          "type": "string"
        },
        {
          "internalType": "string",
          "name": "country",
          "type": "string"
        },
        {
          "internalType": "string",
          "name": "region",
          "type": "string"
        },
        {
          "internalType": "string",
          "name": "dob",
          "type": "string"
        }
      ],
      "name": "signUser",
      "outputs": [],
      "stateMutability": "nonpayable",
      "type": "function"
    },
    {
      "inputs": [],
      "name": "getRole",
      "outputs": [
        {
          "internalType": "uint16",
          "name": "",
          "type": "uint16"
        }
      ],
      "stateMutability": "view",
      "type": "function",
      "constant": true
    },
    {
      "inputs": [],
      "name": "getUser",
      "outputs": [
        {
          "components": [
            {
              "internalType": "string",
              "name": "name",
              "type": "string"
            },
            {
              "internalType": "string",
              "name": "location",
              "type": "string"
            },
            {
              "internalType": "string",
              "name": "email",
              "type": "string"
            },
            {
              "internalType": "string",
              "name": "image",
              "type": "string"
            },
            {
              "internalType": "bool",
              "name": "exist",
              "type": "bool"
            },
            {
              "internalType": "string",
              "name": "country",
              "type": "string"
            },
            {
              "internalType": "string",
              "name": "region",
              "type": "string"
            },
            {
              "internalType": "string",
              "name": "dob",
              "type": "string"
            }
          ],
          "internalType": "struct RebelsFund.User",
          "name": "newUser",
          "type": "tuple"
        }
      ],
      "stateMutability": "view",
      "type": "function",
      "constant": true
    },
    {
      "inputs": [],
      "name": "getCharity",
      "outputs": [
        {
          "components": [
            {
              "internalType": "string",
              "name": "name",
              "type": "string"
            },
            {
              "internalType": "address",
              "name": "adr",
              "type": "address"
            },
            {
              "internalType": "uint256",
              "name": "monthAmount",
              "type": "uint256"
            },
            {
              "internalType": "uint256",
              "name": "recievedAmount",
              "type": "uint256"
            },
            {
              "internalType": "string",
              "name": "image",
              "type": "string"
            },
            {
              "internalType": "string",
              "name": "location",
              "type": "string"
            },
            {
              "internalType": "string",
              "name": "email",
              "type": "string"
            },
            {
              "internalType": "string",
              "name": "ytLink",
              "type": "string"
            },
            {
              "internalType": "bool",
              "name": "exist",
              "type": "bool"
            },
            {
              "internalType": "string",
              "name": "category",
              "type": "string"
            }
          ],
          "internalType": "struct RebelsFund.Charity",
          "name": "newCharity",
          "type": "tuple"
        }
      ],
      "stateMutability": "view",
      "type": "function",
      "constant": true
    },
    {
      "inputs": [
        {
          "internalType": "address",
          "name": "adr",
          "type": "address"
        }
      ],
      "name": "getOneCharity",
      "outputs": [
        {
          "components": [
            {
              "internalType": "string",
              "name": "name",
              "type": "string"
            },
            {
              "internalType": "address",
              "name": "adr",
              "type": "address"
            },
            {
              "internalType": "uint256",
              "name": "monthAmount",
              "type": "uint256"
            },
            {
              "internalType": "uint256",
              "name": "recievedAmount",
              "type": "uint256"
            },
            {
              "internalType": "string",
              "name": "image",
              "type": "string"
            },
            {
              "internalType": "string",
              "name": "location",
              "type": "string"
            },
            {
              "internalType": "string",
              "name": "email",
              "type": "string"
            },
            {
              "internalType": "string",
              "name": "ytLink",
              "type": "string"
            },
            {
              "internalType": "bool",
              "name": "exist",
              "type": "bool"
            },
            {
              "internalType": "string",
              "name": "category",
              "type": "string"
            }
          ],
          "internalType": "struct RebelsFund.Charity",
          "name": "newCharity",
          "type": "tuple"
        }
      ],
      "stateMutability": "view",
      "type": "function",
      "constant": true
    },
    {
      "inputs": [],
      "name": "getAllCharity",
      "outputs": [
        {
          "components": [
            {
              "internalType": "string",
              "name": "name",
              "type": "string"
            },
            {
              "internalType": "address",
              "name": "adr",
              "type": "address"
            },
            {
              "internalType": "uint256",
              "name": "monthAmount",
              "type": "uint256"
            },
            {
              "internalType": "uint256",
              "name": "recievedAmount",
              "type": "uint256"
            },
            {
              "internalType": "string",
              "name": "image",
              "type": "string"
            },
            {
              "internalType": "string",
              "name": "location",
              "type": "string"
            },
            {
              "internalType": "string",
              "name": "email",
              "type": "string"
            },
            {
              "internalType": "string",
              "name": "ytLink",
              "type": "string"
            },
            {
              "internalType": "bool",
              "name": "exist",
              "type": "bool"
            },
            {
              "internalType": "string",
              "name": "category",
              "type": "string"
            }
          ],
          "internalType": "struct RebelsFund.Charity[]",
          "name": "",
          "type": "tuple[]"
        }
      ],
      "stateMutability": "view",
      "type": "function",
      "constant": true
    },
    {
      "inputs": [
        {
          "internalType": "string",
          "name": "name",
          "type": "string"
        },
        {
          "internalType": "uint256",
          "name": "monthAmount",
          "type": "uint256"
        },
        {
          "internalType": "string",
          "name": "image",
          "type": "string"
        },
        {
          "internalType": "string",
          "name": "location",
          "type": "string"
        },
        {
          "internalType": "string",
          "name": "email",
          "type": "string"
        },
        {
          "internalType": "string",
          "name": "ytLink",
          "type": "string"
        },
        {
          "internalType": "string",
          "name": "category",
          "type": "string"
        }
      ],
      "name": "updateCharity",
      "outputs": [],
      "stateMutability": "nonpayable",
      "type": "function"
    },
    {
      "inputs": [
        {
          "internalType": "string",
          "name": "name",
          "type": "string"
        },
        {
          "internalType": "string",
          "name": "location",
          "type": "string"
        },
        {
          "internalType": "string",
          "name": "email",
          "type": "string"
        },
        {
          "internalType": "string",
          "name": "image",
          "type": "string"
        },
        {
          "internalType": "string",
          "name": "country",
          "type": "string"
        },
        {
          "internalType": "string",
          "name": "region",
          "type": "string"
        },
        {
          "internalType": "string",
          "name": "dob",
          "type": "string"
        }
      ],
      "name": "updateDonor",
      "outputs": [],
      "stateMutability": "nonpayable",
      "type": "function"
    }
  ],
  "bytecode": "0x608060405234801561001057600080fd5b50613d49806100206000396000f3fe6080604052600436106100a75760003560e01c8063d64d262211610064578063d64d2622146101b2578063d6f5ef0e146101f8578063e9cb0e6314610223578063ec32f3d21461024e578063ed086d241461028b578063fde08174146102b4576100a7565b806328acb389146100ac57806340d4acd5146100d55780636b55e991146100fe57806381e7e20e1461011a578063832880e71461015e578063bf79dd8914610189575b600080fd5b3480156100b857600080fd5b506100d360048036038101906100ce9190612ea1565b6102df565b005b3480156100e157600080fd5b506100fc60048036038101906100f7919061303d565b610518565b005b610118600480360381019061011391906131e5565b610822565b005b34801561012657600080fd5b50610141600480360381019061013c9190613250565b61091b565b604051610155989796959493929190613320565b60405180910390f35b34801561016a57600080fd5b50610173610d28565b6040516101809190613502565b60405180910390f35b34801561019557600080fd5b506101b060048036038101906101ab919061303d565b6111f2565b005b3480156101be57600080fd5b506101d960048036038101906101d49190613250565b61156f565b6040516101ef9a99989796959493929190613542565b60405180910390f35b34801561020457600080fd5b5061020d611920565b60405161021a9190613723565b60405180910390f35b34801561022f57600080fd5b50610238611dc4565b6040516102459190613904565b60405180910390f35b34801561025a57600080fd5b5061027560048036038101906102709190613250565b6122db565b6040516102829190613723565b60405180910390f35b34801561029757600080fd5b506102b260048036038101906102ad9190612ea1565b612781565b005b3480156102c057600080fd5b506102c9612b2d565b6040516102d69190613943565b60405180910390f35b6000803373ffffffffffffffffffffffffffffffffffffffff1673ffffffffffffffffffffffffffffffffffffffff16815260200190815260200160002060040160009054906101000a900460ff166104d757604051806101000160405280888152602001878152602001868152602001858152602001600115158152602001848152602001838152602001828152506000803373ffffffffffffffffffffffffffffffffffffffff1673ffffffffffffffffffffffffffffffffffffffff16815260200190815260200160002060008201518160000190805190602001906103c9929190612bf2565b5060208201518160010190805190602001906103e6929190612bf2565b506040820151816002019080519060200190610403929190612bf2565b506060820151816003019080519060200190610420929190612bf2565b5060808201518160040160006101000a81548160ff02191690831515021790555060a082015181600501908051906020019061045d929190612bf2565b5060c082015181600601908051906020019061047a929190612bf2565b5060e0820151816007019080519060200190610497929190612bf2565b509050507f7f10ba89a11a960e433d20d7aab617c4f294a81c5d5439215b8533de16f3727f876040516104ca91906139aa565b60405180910390a161050f565b7f7f10ba89a11a960e433d20d7aab617c4f294a81c5d5439215b8533de16f3727f876040516105069190613a2b565b60405180910390a15b50505050505050565b600160003373ffffffffffffffffffffffffffffffffffffffff1673ffffffffffffffffffffffffffffffffffffffff16815260200190815260200160002060080160009054906101000a900460ff166107e1576040518061014001604052808881526020013373ffffffffffffffffffffffffffffffffffffffff1681526020018781526020016000815260200186815260200185815260200184815260200183815260200160011515815260200182815250600160003373ffffffffffffffffffffffffffffffffffffffff1673ffffffffffffffffffffffffffffffffffffffff1681526020019081526020016000206000820151816000019080519060200190610627929190612bf2565b5060208201518160010160006101000a81548173ffffffffffffffffffffffffffffffffffffffff021916908373ffffffffffffffffffffffffffffffffffffffff1602179055506040820151816002015560608201518160030155608082015181600401908051906020019061069f929190612bf2565b5060a08201518160050190805190602001906106bc929190612bf2565b5060c08201518160060190805190602001906106d9929190612bf2565b5060e08201518160070190805190602001906106f6929190612bf2565b506101008201518160080160006101000a81548160ff021916908315150217905550610120820151816009019080519060200190610735929190612bf2565b509050503360026000600354815260200190815260200160002060006101000a81548173ffffffffffffffffffffffffffffffffffffffff021916908373ffffffffffffffffffffffffffffffffffffffff160217905550600360008154809291906107a090613a8f565b91905055507f7f10ba89a11a960e433d20d7aab617c4f294a81c5d5439215b8533de16f3727f876040516107d49190613b24565b60405180910390a1610819565b7f7f10ba89a11a960e433d20d7aab617c4f294a81c5d5439215b8533de16f3727f876040516108109190613ba5565b60405180910390a15b50505050505050565b600160008273ffffffffffffffffffffffffffffffffffffffff1673ffffffffffffffffffffffffffffffffffffffff16815260200190815260200160002060080160009054906101000a900460ff1615610918578073ffffffffffffffffffffffffffffffffffffffff166108fc349081150290604051600060405180830381858888f193505050501580156108bd573d6000803e3d6000fd5b5034600160008373ffffffffffffffffffffffffffffffffffffffff1673ffffffffffffffffffffffffffffffffffffffff16815260200190815260200160002060030160008282546109109190613bda565b925050819055505b50565b600060205280600052604060002060009150905080600001805461093e90613c5f565b80601f016020809104026020016040519081016040528092919081815260200182805461096a90613c5f565b80156109b75780601f1061098c576101008083540402835291602001916109b7565b820191906000526020600020905b81548152906001019060200180831161099a57829003601f168201915b5050505050908060010180546109cc90613c5f565b80601f01602080910402602001604051908101604052809291908181526020018280546109f890613c5f565b8015610a455780601f10610a1a57610100808354040283529160200191610a45565b820191906000526020600020905b815481529060010190602001808311610a2857829003601f168201915b505050505090806002018054610a5a90613c5f565b80601f0160208091040260200160405190810160405280929190818152602001828054610a8690613c5f565b8015610ad35780601f10610aa857610100808354040283529160200191610ad3565b820191906000526020600020905b815481529060010190602001808311610ab657829003601f168201915b505050505090806003018054610ae890613c5f565b80601f0160208091040260200160405190810160405280929190818152602001828054610b1490613c5f565b8015610b615780601f10610b3657610100808354040283529160200191610b61565b820191906000526020600020905b815481529060010190602001808311610b4457829003601f168201915b5050505050908060040160009054906101000a900460ff1690806005018054610b8990613c5f565b80601f0160208091040260200160405190810160405280929190818152602001828054610bb590613c5f565b8015610c025780601f10610bd757610100808354040283529160200191610c02565b820191906000526020600020905b815481529060010190602001808311610be557829003601f168201915b505050505090806006018054610c1790613c5f565b80601f0160208091040260200160405190810160405280929190818152602001828054610c4390613c5f565b8015610c905780601f10610c6557610100808354040283529160200191610c90565b820191906000526020600020905b815481529060010190602001808311610c7357829003601f168201915b505050505090806007018054610ca590613c5f565b80601f0160208091040260200160405190810160405280929190818152602001828054610cd190613c5f565b8015610d1e5780601f10610cf357610100808354040283529160200191610d1e565b820191906000526020600020905b815481529060010190602001808311610d0157829003601f168201915b5050505050905088565b610d30612c78565b6000803373ffffffffffffffffffffffffffffffffffffffff1673ffffffffffffffffffffffffffffffffffffffff16815260200190815260200160002060040160009054906101000a900460ff16156111ee576000803373ffffffffffffffffffffffffffffffffffffffff1673ffffffffffffffffffffffffffffffffffffffff16815260200190815260200160002060405180610100016040529081600082018054610dde90613c5f565b80601f0160208091040260200160405190810160405280929190818152602001828054610e0a90613c5f565b8015610e575780601f10610e2c57610100808354040283529160200191610e57565b820191906000526020600020905b815481529060010190602001808311610e3a57829003601f168201915b50505050508152602001600182018054610e7090613c5f565b80601f0160208091040260200160405190810160405280929190818152602001828054610e9c90613c5f565b8015610ee95780601f10610ebe57610100808354040283529160200191610ee9565b820191906000526020600020905b815481529060010190602001808311610ecc57829003601f168201915b50505050508152602001600282018054610f0290613c5f565b80601f0160208091040260200160405190810160405280929190818152602001828054610f2e90613c5f565b8015610f7b5780601f10610f5057610100808354040283529160200191610f7b565b820191906000526020600020905b815481529060010190602001808311610f5e57829003601f168201915b50505050508152602001600382018054610f9490613c5f565b80601f0160208091040260200160405190810160405280929190818152602001828054610fc090613c5f565b801561100d5780601f10610fe25761010080835404028352916020019161100d565b820191906000526020600020905b815481529060010190602001808311610ff057829003601f168201915b505050505081526020016004820160009054906101000a900460ff1615151515815260200160058201805461104190613c5f565b80601f016020809104026020016040519081016040528092919081815260200182805461106d90613c5f565b80156110ba5780601f1061108f576101008083540402835291602001916110ba565b820191906000526020600020905b81548152906001019060200180831161109d57829003601f168201915b505050505081526020016006820180546110d390613c5f565b80601f01602080910402602001604051908101604052809291908181526020018280546110ff90613c5f565b801561114c5780601f106111215761010080835404028352916020019161114c565b820191906000526020600020905b81548152906001019060200180831161112f57829003601f168201915b5050505050815260200160078201805461116590613c5f565b80601f016020809104026020016040519081016040528092919081815260200182805461119190613c5f565b80156111de5780601f106111b3576101008083540402835291602001916111de565b820191906000526020600020905b8154815290600101906020018083116111c157829003601f168201915b50505050508152505090506111ef565b5b90565b6000876040516020016112059190613ccd565b60405160208183030381529060405280519060200120146112785786600160003373ffffffffffffffffffffffffffffffffffffffff1673ffffffffffffffffffffffffffffffffffffffff1681526020019081526020016000206000019080519060200190611276929190612bf2565b505b600086106112c85785600160003373ffffffffffffffffffffffffffffffffffffffff1673ffffffffffffffffffffffffffffffffffffffff168152602001908152602001600020600201819055505b6000856040516020016112db9190613ccd565b604051602081830303815290604052805190602001201461134e5784600160003373ffffffffffffffffffffffffffffffffffffffff1673ffffffffffffffffffffffffffffffffffffffff168152602001908152602001600020600401908051906020019061134c929190612bf2565b505b6000846040516020016113619190613ccd565b60405160208183030381529060405280519060200120146113d45783600160003373ffffffffffffffffffffffffffffffffffffffff1673ffffffffffffffffffffffffffffffffffffffff16815260200190815260200160002060050190805190602001906113d2929190612bf2565b505b6000836040516020016113e79190613ccd565b604051602081830303815290604052805190602001201461145a5782600160003373ffffffffffffffffffffffffffffffffffffffff1673ffffffffffffffffffffffffffffffffffffffff1681526020019081526020016000206006019080519060200190611458929190612bf2565b505b60008260405160200161146d9190613ccd565b60405160208183030381529060405280519060200120146114e05781600160003373ffffffffffffffffffffffffffffffffffffffff1673ffffffffffffffffffffffffffffffffffffffff16815260200190815260200160002060070190805190602001906114de929190612bf2565b505b6000816040516020016114f39190613ccd565b60405160208183030381529060405280519060200120146115665780600160003373ffffffffffffffffffffffffffffffffffffffff1673ffffffffffffffffffffffffffffffffffffffff1681526020019081526020016000206009019080519060200190611564929190612bf2565b505b50505050505050565b600160205280600052604060002060009150905080600001805461159290613c5f565b80601f01602080910402602001604051908101604052809291908181526020018280546115be90613c5f565b801561160b5780601f106115e05761010080835404028352916020019161160b565b820191906000526020600020905b8154815290600101906020018083116115ee57829003601f168201915b5050505050908060010160009054906101000a900473ffffffffffffffffffffffffffffffffffffffff169080600201549080600301549080600401805461165290613c5f565b80601f016020809104026020016040519081016040528092919081815260200182805461167e90613c5f565b80156116cb5780601f106116a0576101008083540402835291602001916116cb565b820191906000526020600020905b8154815290600101906020018083116116ae57829003601f168201915b5050505050908060050180546116e090613c5f565b80601f016020809104026020016040519081016040528092919081815260200182805461170c90613c5f565b80156117595780601f1061172e57610100808354040283529160200191611759565b820191906000526020600020905b81548152906001019060200180831161173c57829003601f168201915b50505050509080600601805461176e90613c5f565b80601f016020809104026020016040519081016040528092919081815260200182805461179a90613c5f565b80156117e75780601f106117bc576101008083540402835291602001916117e7565b820191906000526020600020905b8154815290600101906020018083116117ca57829003601f168201915b5050505050908060070180546117fc90613c5f565b80601f016020809104026020016040519081016040528092919081815260200182805461182890613c5f565b80156118755780601f1061184a57610100808354040283529160200191611875565b820191906000526020600020905b81548152906001019060200180831161185857829003601f168201915b5050505050908060080160009054906101000a900460ff169080600901805461189d90613c5f565b80601f01602080910402602001604051908101604052809291908181526020018280546118c990613c5f565b80156119165780601f106118eb57610100808354040283529160200191611916565b820191906000526020600020905b8154815290600101906020018083116118f957829003601f168201915b505050505090508a565b611928612cbf565b600160003373ffffffffffffffffffffffffffffffffffffffff1673ffffffffffffffffffffffffffffffffffffffff16815260200190815260200160002060080160009054906101000a900460ff1615611dc057600160003373ffffffffffffffffffffffffffffffffffffffff1673ffffffffffffffffffffffffffffffffffffffff168152602001908152602001600020604051806101400160405290816000820180546119d890613c5f565b80601f0160208091040260200160405190810160405280929190818152602001828054611a0490613c5f565b8015611a515780601f10611a2657610100808354040283529160200191611a51565b820191906000526020600020905b815481529060010190602001808311611a3457829003601f168201915b505050505081526020016001820160009054906101000a900473ffffffffffffffffffffffffffffffffffffffff1673ffffffffffffffffffffffffffffffffffffffff1673ffffffffffffffffffffffffffffffffffffffff1681526020016002820154815260200160038201548152602001600482018054611ad490613c5f565b80601f0160208091040260200160405190810160405280929190818152602001828054611b0090613c5f565b8015611b4d5780601f10611b2257610100808354040283529160200191611b4d565b820191906000526020600020905b815481529060010190602001808311611b3057829003601f168201915b50505050508152602001600582018054611b6690613c5f565b80601f0160208091040260200160405190810160405280929190818152602001828054611b9290613c5f565b8015611bdf5780601f10611bb457610100808354040283529160200191611bdf565b820191906000526020600020905b815481529060010190602001808311611bc257829003601f168201915b50505050508152602001600682018054611bf890613c5f565b80601f0160208091040260200160405190810160405280929190818152602001828054611c2490613c5f565b8015611c715780601f10611c4657610100808354040283529160200191611c71565b820191906000526020600020905b815481529060010190602001808311611c5457829003601f168201915b50505050508152602001600782018054611c8a90613c5f565b80601f0160208091040260200160405190810160405280929190818152602001828054611cb690613c5f565b8015611d035780601f10611cd857610100808354040283529160200191611d03565b820191906000526020600020905b815481529060010190602001808311611ce657829003601f168201915b505050505081526020016008820160009054906101000a900460ff16151515158152602001600982018054611d3790613c5f565b80601f0160208091040260200160405190810160405280929190818152602001828054611d6390613c5f565b8015611db05780601f10611d8557610100808354040283529160200191611db0565b820191906000526020600020905b815481529060010190602001808311611d9357829003601f168201915b5050505050815250509050611dc1565b5b90565b6060600060035467ffffffffffffffff811115611de457611de3612d76565b5b604051908082528060200260200182016040528015611e1d57816020015b611e0a612cbf565b815260200190600190039081611e025790505b50905060005b6003548110156122d3576000600160006002600085815260200190815260200160002060009054906101000a900473ffffffffffffffffffffffffffffffffffffffff1673ffffffffffffffffffffffffffffffffffffffff1673ffffffffffffffffffffffffffffffffffffffff16815260200190815260200160002090508060405180610140016040529081600082018054611ec090613c5f565b80601f0160208091040260200160405190810160405280929190818152602001828054611eec90613c5f565b8015611f395780601f10611f0e57610100808354040283529160200191611f39565b820191906000526020600020905b815481529060010190602001808311611f1c57829003601f168201915b505050505081526020016001820160009054906101000a900473ffffffffffffffffffffffffffffffffffffffff1673ffffffffffffffffffffffffffffffffffffffff1673ffffffffffffffffffffffffffffffffffffffff1681526020016002820154815260200160038201548152602001600482018054611fbc90613c5f565b80601f0160208091040260200160405190810160405280929190818152602001828054611fe890613c5f565b80156120355780601f1061200a57610100808354040283529160200191612035565b820191906000526020600020905b81548152906001019060200180831161201857829003601f168201915b5050505050815260200160058201805461204e90613c5f565b80601f016020809104026020016040519081016040528092919081815260200182805461207a90613c5f565b80156120c75780601f1061209c576101008083540402835291602001916120c7565b820191906000526020600020905b8154815290600101906020018083116120aa57829003601f168201915b505050505081526020016006820180546120e090613c5f565b80601f016020809104026020016040519081016040528092919081815260200182805461210c90613c5f565b80156121595780601f1061212e57610100808354040283529160200191612159565b820191906000526020600020905b81548152906001019060200180831161213c57829003601f168201915b5050505050815260200160078201805461217290613c5f565b80601f016020809104026020016040519081016040528092919081815260200182805461219e90613c5f565b80156121eb5780601f106121c0576101008083540402835291602001916121eb565b820191906000526020600020905b8154815290600101906020018083116121ce57829003601f168201915b505050505081526020016008820160009054906101000a900460ff1615151515815260200160098201805461221f90613c5f565b80601f016020809104026020016040519081016040528092919081815260200182805461224b90613c5f565b80156122985780601f1061226d57610100808354040283529160200191612298565b820191906000526020600020905b81548152906001019060200180831161227b57829003601f168201915b5050505050815250508383815181106122b4576122b3613ce4565b5b60200260200101819052505080806122cb90613a8f565b915050611e23565b508091505090565b6122e3612cbf565b600160008373ffffffffffffffffffffffffffffffffffffffff1673ffffffffffffffffffffffffffffffffffffffff16815260200190815260200160002060080160009054906101000a900460ff161561277b57600160008373ffffffffffffffffffffffffffffffffffffffff1673ffffffffffffffffffffffffffffffffffffffff1681526020019081526020016000206040518061014001604052908160008201805461239390613c5f565b80601f01602080910402602001604051908101604052809291908181526020018280546123bf90613c5f565b801561240c5780601f106123e15761010080835404028352916020019161240c565b820191906000526020600020905b8154815290600101906020018083116123ef57829003601f168201915b505050505081526020016001820160009054906101000a900473ffffffffffffffffffffffffffffffffffffffff1673ffffffffffffffffffffffffffffffffffffffff1673ffffffffffffffffffffffffffffffffffffffff168152602001600282015481526020016003820154815260200160048201805461248f90613c5f565b80601f01602080910402602001604051908101604052809291908181526020018280546124bb90613c5f565b80156125085780601f106124dd57610100808354040283529160200191612508565b820191906000526020600020905b8154815290600101906020018083116124eb57829003601f168201915b5050505050815260200160058201805461252190613c5f565b80601f016020809104026020016040519081016040528092919081815260200182805461254d90613c5f565b801561259a5780601f1061256f5761010080835404028352916020019161259a565b820191906000526020600020905b81548152906001019060200180831161257d57829003601f168201915b505050505081526020016006820180546125b390613c5f565b80601f01602080910402602001604051908101604052809291908181526020018280546125df90613c5f565b801561262c5780601f106126015761010080835404028352916020019161262c565b820191906000526020600020905b81548152906001019060200180831161260f57829003601f168201915b5050505050815260200160078201805461264590613c5f565b80601f016020809104026020016040519081016040528092919081815260200182805461267190613c5f565b80156126be5780601f10612693576101008083540402835291602001916126be565b820191906000526020600020905b8154815290600101906020018083116126a157829003601f168201915b505050505081526020016008820160009054906101000a900460ff161515151581526020016009820180546126f290613c5f565b80601f016020809104026020016040519081016040528092919081815260200182805461271e90613c5f565b801561276b5780601f106127405761010080835404028352916020019161276b565b820191906000526020600020905b81548152906001019060200180831161274e57829003601f168201915b505050505081525050905061277c565b5b919050565b6000876040516020016127949190613ccd565b604051602081830303815290604052805190602001201461280657866000803373ffffffffffffffffffffffffffffffffffffffff1673ffffffffffffffffffffffffffffffffffffffff1681526020019081526020016000206000019080519060200190612804929190612bf2565b505b6000866040516020016128199190613ccd565b604051602081830303815290604052805190602001201461288b57856000803373ffffffffffffffffffffffffffffffffffffffff1673ffffffffffffffffffffffffffffffffffffffff1681526020019081526020016000206001019080519060200190612889929190612bf2565b505b60008560405160200161289e9190613ccd565b604051602081830303815290604052805190602001201461291057846000803373ffffffffffffffffffffffffffffffffffffffff1673ffffffffffffffffffffffffffffffffffffffff168152602001908152602001600020600201908051906020019061290e929190612bf2565b505b6000846040516020016129239190613ccd565b604051602081830303815290604052805190602001201461299557836000803373ffffffffffffffffffffffffffffffffffffffff1673ffffffffffffffffffffffffffffffffffffffff1681526020019081526020016000206003019080519060200190612993929190612bf2565b505b6000836040516020016129a89190613ccd565b6040516020818303038152906040528051906020012014612a1a57826000803373ffffffffffffffffffffffffffffffffffffffff1673ffffffffffffffffffffffffffffffffffffffff1681526020019081526020016000206005019080519060200190612a18929190612bf2565b505b600082604051602001612a2d9190613ccd565b6040516020818303038152906040528051906020012014612a9f57816000803373ffffffffffffffffffffffffffffffffffffffff1673ffffffffffffffffffffffffffffffffffffffff1681526020019081526020016000206006019080519060200190612a9d929190612bf2565b505b600081604051602001612ab29190613ccd565b6040516020818303038152906040528051906020012014612b2457806000803373ffffffffffffffffffffffffffffffffffffffff1673ffffffffffffffffffffffffffffffffffffffff1681526020019081526020016000206007019080519060200190612b22929190612bf2565b505b50505050505050565b6000600160003373ffffffffffffffffffffffffffffffffffffffff1673ffffffffffffffffffffffffffffffffffffffff16815260200190815260200160002060080160009054906101000a900460ff1615612b8d5760019050612bef565b6000803373ffffffffffffffffffffffffffffffffffffffff1673ffffffffffffffffffffffffffffffffffffffff16815260200190815260200160002060040160009054906101000a900460ff1615612bea5760029050612bef565b600090505b90565b828054612bfe90613c5f565b90600052602060002090601f016020900481019282612c205760008555612c67565b82601f10612c3957805160ff1916838001178555612c67565b82800160010185558215612c67579182015b82811115612c66578251825591602001919060010190612c4b565b5b509050612c749190612d2a565b5090565b604051806101000160405280606081526020016060815260200160608152602001606081526020016000151581526020016060815260200160608152602001606081525090565b60405180610140016040528060608152602001600073ffffffffffffffffffffffffffffffffffffffff168152602001600081526020016000815260200160608152602001606081526020016060815260200160608152602001600015158152602001606081525090565b5b80821115612d43576000816000905550600101612d2b565b5090565b6000604051905090565b600080fd5b600080fd5b600080fd5b600080fd5b6000601f19601f8301169050919050565b7f4e487b7100000000000000000000000000000000000000000000000000000000600052604160045260246000fd5b612dae82612d65565b810181811067ffffffffffffffff82111715612dcd57612dcc612d76565b5b80604052505050565b6000612de0612d47565b9050612dec8282612da5565b919050565b600067ffffffffffffffff821115612e0c57612e0b612d76565b5b612e1582612d65565b9050602081019050919050565b82818337600083830152505050565b6000612e44612e3f84612df1565b612dd6565b905082815260208101848484011115612e6057612e5f612d60565b5b612e6b848285612e22565b509392505050565b600082601f830112612e8857612e87612d5b565b5b8135612e98848260208601612e31565b91505092915050565b600080600080600080600060e0888a031215612ec057612ebf612d51565b5b600088013567ffffffffffffffff811115612ede57612edd612d56565b5b612eea8a828b01612e73565b975050602088013567ffffffffffffffff811115612f0b57612f0a612d56565b5b612f178a828b01612e73565b965050604088013567ffffffffffffffff811115612f3857612f37612d56565b5b612f448a828b01612e73565b955050606088013567ffffffffffffffff811115612f6557612f64612d56565b5b612f718a828b01612e73565b945050608088013567ffffffffffffffff811115612f9257612f91612d56565b5b612f9e8a828b01612e73565b93505060a088013567ffffffffffffffff811115612fbf57612fbe612d56565b5b612fcb8a828b01612e73565b92505060c088013567ffffffffffffffff811115612fec57612feb612d56565b5b612ff88a828b01612e73565b91505092959891949750929550565b6000819050919050565b61301a81613007565b811461302557600080fd5b50565b60008135905061303781613011565b92915050565b600080600080600080600060e0888a03121561305c5761305b612d51565b5b600088013567ffffffffffffffff81111561307a57613079612d56565b5b6130868a828b01612e73565b97505060206130978a828b01613028565b965050604088013567ffffffffffffffff8111156130b8576130b7612d56565b5b6130c48a828b01612e73565b955050606088013567ffffffffffffffff8111156130e5576130e4612d56565b5b6130f18a828b01612e73565b945050608088013567ffffffffffffffff81111561311257613111612d56565b5b61311e8a828b01612e73565b93505060a088013567ffffffffffffffff81111561313f5761313e612d56565b5b61314b8a828b01612e73565b92505060c088013567ffffffffffffffff81111561316c5761316b612d56565b5b6131788a828b01612e73565b91505092959891949750929550565b600073ffffffffffffffffffffffffffffffffffffffff82169050919050565b60006131b282613187565b9050919050565b6131c2816131a7565b81146131cd57600080fd5b50565b6000813590506131df816131b9565b92915050565b6000602082840312156131fb576131fa612d51565b5b6000613209848285016131d0565b91505092915050565b600061321d82613187565b9050919050565b61322d81613212565b811461323857600080fd5b50565b60008135905061324a81613224565b92915050565b60006020828403121561326657613265612d51565b5b60006132748482850161323b565b91505092915050565b600081519050919050565b600082825260208201905092915050565b60005b838110156132b757808201518184015260208101905061329c565b838111156132c6576000848401525b50505050565b60006132d78261327d565b6132e18185613288565b93506132f1818560208601613299565b6132fa81612d65565b840191505092915050565b60008115159050919050565b61331a81613305565b82525050565b600061010082019050818103600083015261333b818b6132cc565b9050818103602083015261334f818a6132cc565b9050818103604083015261336381896132cc565b9050818103606083015261337781886132cc565b90506133866080830187613311565b81810360a083015261339881866132cc565b905081810360c08301526133ac81856132cc565b905081810360e08301526133c081846132cc565b90509998505050505050505050565b600082825260208201905092915050565b60006133eb8261327d565b6133f581856133cf565b9350613405818560208601613299565b61340e81612d65565b840191505092915050565b61342281613305565b82525050565b600061010083016000830151848203600086015261344682826133e0565b9150506020830151848203602086015261346082826133e0565b9150506040830151848203604086015261347a82826133e0565b9150506060830151848203606086015261349482826133e0565b91505060808301516134a96080860182613419565b5060a083015184820360a08601526134c182826133e0565b91505060c083015184820360c08601526134db82826133e0565b91505060e083015184820360e08601526134f582826133e0565b9150508091505092915050565b6000602082019050818103600083015261351c8184613428565b905092915050565b61352d81613212565b82525050565b61353c81613007565b82525050565b600061014082019050818103600083015261355d818d6132cc565b905061356c602083018c613524565b613579604083018b613533565b613586606083018a613533565b818103608083015261359881896132cc565b905081810360a08301526135ac81886132cc565b905081810360c08301526135c081876132cc565b905081810360e08301526135d481866132cc565b90506135e4610100830185613311565b8181036101208301526135f781846132cc565b90509b9a5050505050505050505050565b61361181613212565b82525050565b61362081613007565b82525050565b600061014083016000830151848203600086015261364482826133e0565b91505060208301516136596020860182613608565b50604083015161366c6040860182613617565b50606083015161367f6060860182613617565b506080830151848203608086015261369782826133e0565b91505060a083015184820360a08601526136b182826133e0565b91505060c083015184820360c08601526136cb82826133e0565b91505060e083015184820360e08601526136e582826133e0565b9150506101008301516136fc610100860182613419565b5061012083015184820361012086015261371682826133e0565b9150508091505092915050565b6000602082019050818103600083015261373d8184613626565b905092915050565b600081519050919050565b600082825260208201905092915050565b6000819050602082019050919050565b600061014083016000830151848203600086015261378f82826133e0565b91505060208301516137a46020860182613608565b5060408301516137b76040860182613617565b5060608301516137ca6060860182613617565b50608083015184820360808601526137e282826133e0565b91505060a083015184820360a08601526137fc82826133e0565b91505060c083015184820360c086015261381682826133e0565b91505060e083015184820360e086015261383082826133e0565b915050610100830151613847610100860182613419565b5061012083015184820361012086015261386182826133e0565b9150508091505092915050565b600061387a8383613771565b905092915050565b6000602082019050919050565b600061389a82613745565b6138a48185613750565b9350836020820285016138b685613761565b8060005b858110156138f257848403895281516138d3858261386e565b94506138de83613882565b925060208a019950506001810190506138ba565b50829750879550505050505092915050565b6000602082019050818103600083015261391e818461388f565b905092915050565b600061ffff82169050919050565b61393d81613926565b82525050565b60006020820190506139586000830184613934565b92915050565b7f4e657720646f6e6f722061646465642100000000000000000000000000000000600082015250565b6000613994601083613288565b915061399f8261395e565b602082019050919050565b600060408201905081810360008301526139c381613987565b905081810360208301526139d781846132cc565b905092915050565b7f596f752061726520616c726561647920646f6e6f720000000000000000000000600082015250565b6000613a15601583613288565b9150613a20826139df565b602082019050919050565b60006040820190508181036000830152613a4481613a08565b90508181036020830152613a5881846132cc565b905092915050565b7f4e487b7100000000000000000000000000000000000000000000000000000000600052601160045260246000fd5b6000613a9a82613007565b91507fffffffffffffffffffffffffffffffffffffffffffffffffffffffffffffffff821415613acd57613acc613a60565b5b600182019050919050565b7f4e65772063686172697479206164646564210000000000000000000000000000600082015250565b6000613b0e601283613288565b9150613b1982613ad8565b602082019050919050565b60006040820190508181036000830152613b3d81613b01565b90508181036020830152613b5181846132cc565b905092915050565b7f596f752061726520616c72656164792063686172697479000000000000000000600082015250565b6000613b8f601783613288565b9150613b9a82613b59565b602082019050919050565b60006040820190508181036000830152613bbe81613b82565b90508181036020830152613bd281846132cc565b905092915050565b6000613be582613007565b9150613bf083613007565b9250827fffffffffffffffffffffffffffffffffffffffffffffffffffffffffffffffff03821115613c2557613c24613a60565b5b828201905092915050565b7f4e487b7100000000000000000000000000000000000000000000000000000000600052602260045260246000fd5b60006002820490506001821680613c7757607f821691505b60208210811415613c8b57613c8a613c30565b5b50919050565b600081905092915050565b6000613ca78261327d565b613cb18185613c91565b9350613cc1818560208601613299565b80840191505092915050565b6000613cd98284613c9c565b915081905092915050565b7f4e487b7100000000000000000000000000000000000000000000000000000000600052603260045260246000fdfea2646970667358221220dfedc6982e67b05d4bf0aabe44da8ed038711946b7c6c633d178e4e8ca8c8da564736f6c63430008090033",
  "immutableReferences": {},
  "source": "// SPDX-License-Identifier: MIT\npragma solidity >=0.4.22 <0.9.0;\n\ncontract RebelsFund {\n  event SignatureAdded(string message, string name);\n  struct Charity{\n    string name;\n    address adr;\n    uint256 monthAmount;\n    uint256 recievedAmount;\n    string image;\n    string location;\n    string email;\n    string ytLink;\n    bool exist;\n    string category;\n  }\n  struct User{\n    string name;\n    string location;\n    string email;\n    string image;\n    bool exist;\n    string country;\n    string region;\n    string dob;\n  }\n  mapping (address => User) public user;\n  mapping (address => Charity) public charity;\n  \n  mapping (uint => address) private charityAddresses;\n  uint charityAddressesCount;\n \n\n  function transferEther(address payable receiver)payable external {\n    if(charity[receiver].exist){\n      receiver.transfer(msg.value);\n      charity[receiver].recievedAmount += msg.value;\n    }\n  }\n  function signCharity(string memory name, uint monthAmount, string memory image, string memory location, string memory email , string memory ytLink, string memory category) public {\n    if(!charity[msg.sender].exist){\n      charity[msg.sender] = Charity(name,msg.sender, monthAmount, 0, image, location, email, ytLink, true, category);\n      charityAddresses[charityAddressesCount] = msg.sender;\n      charityAddressesCount++;\n      emit SignatureAdded(\"New charity added!\", name);\n    }else{\n      emit SignatureAdded(\"You are already charity\", name);\n    }\n  }\n\n  function signUser(string memory name, string memory location, string memory email, string memory image,string memory country,string memory region,string memory dob) public {\n    if(!user[msg.sender].exist){\n      user[msg.sender] = User(name,location,email, image,true,country,region,dob);\n      emit SignatureAdded(\"New donor added!\", name);\n    }else{\n      emit SignatureAdded(\"You are already donor\", name);\n    }\n  }\n\n  function getRole() public view returns(uint16){\n    if(charity[msg.sender].exist){\n      return 1;\n    }else if(user[msg.sender].exist){\n      return 2;\n    }else{\n      return 0;\n    }\n  }\n\n  function getUser() public view returns(User memory newUser){\n    if(user[msg.sender].exist){\n      return user[msg.sender];\n    }\n  }\n\n  function getCharity() public view returns(Charity memory newCharity){\n    if(charity[msg.sender].exist){\n      return charity[msg.sender];\n    }\n  }\n\n  function getOneCharity(address adr) public view returns(Charity memory newCharity){\n    if(charity[adr].exist){\n      return charity[adr];\n    }\n  }\n\n  function getAllCharity() public view returns (Charity[] memory){\n    Charity[] memory charities = new Charity[](charityAddressesCount);\n    for (uint i = 0; i < charityAddressesCount; i++) {\n        Charity storage charitie = charity[charityAddresses[i]];\n        charities[i] = charitie;\n    }\n    return charities;\n  }\n\n  function updateCharity(string memory name, uint256 monthAmount, string memory image, string memory location, string memory email, string memory ytLink , string memory category) public {\n    if(keccak256(abi.encodePacked((name))) != \"\"){\n      charity[msg.sender].name = name;\n    }\n    if(monthAmount >= 0){\n      charity[msg.sender].monthAmount = monthAmount;\n    }\n    if(keccak256(abi.encodePacked((image))) != \"\"){\n      charity[msg.sender].image = image;\n    }\n    if(keccak256(abi.encodePacked((location))) != \"\"){\n      charity[msg.sender].location = location;\n    }\n    if(keccak256(abi.encodePacked((email))) != \"\"){\n      charity[msg.sender].email = email;\n    }\n    if(keccak256(abi.encodePacked((ytLink))) != \"\"){\n      charity[msg.sender].ytLink = ytLink;\n    }\n     if(keccak256(abi.encodePacked((category))) != \"\"){\n      charity[msg.sender].category = category;\n    }\n  }\n\n  function updateDonor(string memory name, string memory location, string memory email, string memory image,string memory country,string memory region,string memory dob) public {\n    if(keccak256(abi.encodePacked((name))) != \"\"){\n      user[msg.sender].name = name;\n    }\n    if(keccak256(abi.encodePacked((location))) != \"\"){\n      user[msg.sender].location = location;\n    }\n    if(keccak256(abi.encodePacked((email))) != \"\"){\n      user[msg.sender].email = email;\n    }\n    if(keccak256(abi.encodePacked((image))) != \"\"){\n      user[msg.sender].image = image;\n    }\n     if(keccak256(abi.encodePacked((country))) != \"\"){\n      user[msg.sender].country = country;\n    }\n     if(keccak256(abi.encodePacked((region))) != \"\"){\n      user[msg.sender].region = region;\n    }\n     if(keccak256(abi.encodePacked((dob))) != \"\"){\n      user[msg.sender].dob = dob;\n    }\n  }\n}",
  "sourcePath": "D:\\IIP\\RebelsFund\\contracts\\RebelsFund.sol",
  "compiler": {
    "name": "solc",
    "version": "0.8.9+commit.e5eed63a.Emscripten.clang"
  },
  "schemaVersion": "3.4.3",
  "updatedAt": "2022-04-02T12:32:12.813Z",
  "networkType": "ethereum",
  "devdoc": {
    "kind": "dev",
    "methods": {},
    "version": 1
  },
  "userdoc": {
    "kind": "user",
    "methods": {},
    "version": 1
  }
}