{
  "contractName": "RebelsFund",
  "abi": [
    {
      "anonymous": false,
      "inputs": [
        {
          "indexed": false,
          "internalType": "string",
          "name": "message",
          "type": "string"
        },
        {
          "indexed": false,
          "internalType": "bytes32",
          "name": "name",
          "type": "bytes32"
        }
      ],
      "name": "SignatureAdded",
      "type": "event"
    },
    {
      "inputs": [
        {
          "internalType": "address",
          "name": "",
          "type": "address"
        }
      ],
      "name": "charity",
      "outputs": [
        {
          "internalType": "address",
          "name": "adr",
          "type": "address"
        },
        {
          "internalType": "bytes32",
          "name": "name",
          "type": "bytes32"
        },
        {
          "internalType": "uint256",
          "name": "monthAmount",
          "type": "uint256"
        },
        {
          "internalType": "uint256",
          "name": "recievedAmount",
          "type": "uint256"
        },
        {
          "internalType": "bool",
          "name": "exist",
          "type": "bool"
        }
      ],
      "stateMutability": "view",
      "type": "function",
      "constant": true
    },
    {
      "inputs": [
        {
          "internalType": "address",
          "name": "",
          "type": "address"
        }
      ],
      "name": "user",
      "outputs": [
        {
          "internalType": "bytes32",
          "name": "name",
          "type": "bytes32"
        },
        {
          "internalType": "bool",
          "name": "exist",
          "type": "bool"
        }
      ],
      "stateMutability": "view",
      "type": "function",
      "constant": true
    },
    {
      "inputs": [
        {
          "internalType": "address payable",
          "name": "receiverAdr",
          "type": "address"
        }
      ],
      "name": "transferEther",
      "outputs": [],
      "stateMutability": "nonpayable",
      "type": "function"
    },
    {
      "inputs": [
        {
          "internalType": "bytes32",
          "name": "name",
          "type": "bytes32"
        },
        {
          "internalType": "uint256",
          "name": "monthAmount",
          "type": "uint256"
        }
      ],
      "name": "signCharity",
      "outputs": [],
      "stateMutability": "nonpayable",
      "type": "function"
    },
    {
      "inputs": [
        {
          "internalType": "bytes32",
          "name": "name",
          "type": "bytes32"
        }
      ],
      "name": "signUser",
      "outputs": [],
      "stateMutability": "nonpayable",
      "type": "function"
    },
    {
      "inputs": [],
      "name": "getRole",
      "outputs": [
        {
          "internalType": "uint16",
          "name": "",
          "type": "uint16"
        }
      ],
      "stateMutability": "view",
      "type": "function",
      "constant": true
    },
    {
      "inputs": [],
      "name": "getAllCharity",
      "outputs": [
        {
          "components": [
            {
              "internalType": "address",
              "name": "adr",
              "type": "address"
            },
            {
              "internalType": "bytes32",
              "name": "name",
              "type": "bytes32"
            },
            {
              "internalType": "uint256",
              "name": "monthAmount",
              "type": "uint256"
            },
            {
              "internalType": "uint256",
              "name": "recievedAmount",
              "type": "uint256"
            },
            {
              "internalType": "bool",
              "name": "exist",
              "type": "bool"
            }
          ],
          "internalType": "struct RebelsFund.Charity[]",
          "name": "",
          "type": "tuple[]"
        }
      ],
      "stateMutability": "view",
      "type": "function",
      "constant": true
    }
  ],
  "bytecode": "0x608060405234801561001057600080fd5b5061104d806100206000396000f3fe608060405234801561001057600080fd5b506004361061007d5760003560e01c806381e7e20e1161005b57806381e7e20e146100d6578063d64d262214610107578063e9cb0e631461013b578063fde08174146101595761007d565b806364315e39146100825780636b55e9911461009e578063793da77c146100ba575b600080fd5b61009c6004803603810190610097919061093e565b610177565b005b6100b860048036038101906100b391906109c9565b6102c4565b005b6100d460048036038101906100cf9190610a2c565b61036c565b005b6100f060048036038101906100eb9190610aaa565b6105ac565b6040516100fe929190610b01565b60405180910390f35b610121600480360381019061011c9190610aaa565b6105dd565b604051610132959493929190610b48565b60405180910390f35b610143610640565b6040516101509190610cee565b60405180910390f35b6101616107f4565b60405161016e9190610d2d565b60405180910390f35b6000803373ffffffffffffffffffffffffffffffffffffffff1673ffffffffffffffffffffffffffffffffffffffff16815260200190815260200160002060010160009054906101000a900460ff16610289576040518060400160405280828152602001600115158152506000803373ffffffffffffffffffffffffffffffffffffffff1673ffffffffffffffffffffffffffffffffffffffff1681526020019081526020016000206000820151816000015560208201518160010160006101000a81548160ff0219169083151502179055509050507f52459aff3b9a588e65d060c0affd7121b01e01e17dfcc75e0050b9035822e3198160405161027c9190610da5565b60405180910390a16102c1565b7f52459aff3b9a588e65d060c0affd7121b01e01e17dfcc75e0050b9035822e319816040516102b89190610e1f565b60405180910390a15b50565b600160008273ffffffffffffffffffffffffffffffffffffffff1673ffffffffffffffffffffffffffffffffffffffff16815260200190815260200160002060040160009054906101000a900460ff1615610369578073ffffffffffffffffffffffffffffffffffffffff166108fc670de0b6b3a76400009081150290604051600060405180830381858888f19350505050158015610367573d6000803e3d6000fd5b505b50565b600160003373ffffffffffffffffffffffffffffffffffffffff1673ffffffffffffffffffffffffffffffffffffffff16815260200190815260200160002060040160009054906101000a900460ff16610570576040518060a001604052803373ffffffffffffffffffffffffffffffffffffffff1681526020018381526020018281526020016000815260200160011515815250600160003373ffffffffffffffffffffffffffffffffffffffff1673ffffffffffffffffffffffffffffffffffffffff16815260200190815260200160002060008201518160000160006101000a81548173ffffffffffffffffffffffffffffffffffffffff021916908373ffffffffffffffffffffffffffffffffffffffff16021790555060208201518160010155604082015181600201556060820151816003015560808201518160040160006101000a81548160ff0219169083151502179055509050503360026000600354815260200190815260200160002060006101000a81548173ffffffffffffffffffffffffffffffffffffffff021916908373ffffffffffffffffffffffffffffffffffffffff1602179055506003600081548092919061052f90610e7c565b91905055507f52459aff3b9a588e65d060c0affd7121b01e01e17dfcc75e0050b9035822e319826040516105639190610f11565b60405180910390a16105a8565b7f52459aff3b9a588e65d060c0affd7121b01e01e17dfcc75e0050b9035822e3198260405161059f9190610f8b565b60405180910390a15b5050565b60006020528060005260406000206000915090508060000154908060010160009054906101000a900460ff16905082565b60016020528060005260406000206000915090508060000160009054906101000a900473ffffffffffffffffffffffffffffffffffffffff16908060010154908060020154908060030154908060040160009054906101000a900460ff16905085565b6060600060035467ffffffffffffffff8111156106605761065f610fb9565b5b60405190808252806020026020018201604052801561069957816020015b6106866108b9565b81526020019060019003908161067e5790505b50905060005b6003548110156107ec576000600160006002600085815260200190815260200160002060009054906101000a900473ffffffffffffffffffffffffffffffffffffffff1673ffffffffffffffffffffffffffffffffffffffff1673ffffffffffffffffffffffffffffffffffffffff1681526020019081526020016000209050806040518060a00160405290816000820160009054906101000a900473ffffffffffffffffffffffffffffffffffffffff1673ffffffffffffffffffffffffffffffffffffffff1673ffffffffffffffffffffffffffffffffffffffff1681526020016001820154815260200160028201548152602001600382015481526020016004820160009054906101000a900460ff1615151515815250508383815181106107cd576107cc610fe8565b5b60200260200101819052505080806107e490610e7c565b91505061069f565b508091505090565b6000600160003373ffffffffffffffffffffffffffffffffffffffff1673ffffffffffffffffffffffffffffffffffffffff16815260200190815260200160002060040160009054906101000a900460ff161561085457600190506108b6565b6000803373ffffffffffffffffffffffffffffffffffffffff1673ffffffffffffffffffffffffffffffffffffffff16815260200190815260200160002060010160009054906101000a900460ff16156108b157600290506108b6565b600090505b90565b6040518060a00160405280600073ffffffffffffffffffffffffffffffffffffffff1681526020016000801916815260200160008152602001600081526020016000151581525090565b600080fd5b6000819050919050565b61091b81610908565b811461092657600080fd5b50565b60008135905061093881610912565b92915050565b60006020828403121561095457610953610903565b5b600061096284828501610929565b91505092915050565b600073ffffffffffffffffffffffffffffffffffffffff82169050919050565b60006109968261096b565b9050919050565b6109a68161098b565b81146109b157600080fd5b50565b6000813590506109c38161099d565b92915050565b6000602082840312156109df576109de610903565b5b60006109ed848285016109b4565b91505092915050565b6000819050919050565b610a09816109f6565b8114610a1457600080fd5b50565b600081359050610a2681610a00565b92915050565b60008060408385031215610a4357610a42610903565b5b6000610a5185828601610929565b9250506020610a6285828601610a17565b9150509250929050565b6000610a778261096b565b9050919050565b610a8781610a6c565b8114610a9257600080fd5b50565b600081359050610aa481610a7e565b92915050565b600060208284031215610ac057610abf610903565b5b6000610ace84828501610a95565b91505092915050565b610ae081610908565b82525050565b60008115159050919050565b610afb81610ae6565b82525050565b6000604082019050610b166000830185610ad7565b610b236020830184610af2565b9392505050565b610b3381610a6c565b82525050565b610b42816109f6565b82525050565b600060a082019050610b5d6000830188610b2a565b610b6a6020830187610ad7565b610b776040830186610b39565b610b846060830185610b39565b610b916080830184610af2565b9695505050505050565b600081519050919050565b600082825260208201905092915050565b6000819050602082019050919050565b610bd081610a6c565b82525050565b610bdf81610908565b82525050565b610bee816109f6565b82525050565b610bfd81610ae6565b82525050565b60a082016000820151610c196000850182610bc7565b506020820151610c2c6020850182610bd6565b506040820151610c3f6040850182610be5565b506060820151610c526060850182610be5565b506080820151610c656080850182610bf4565b50505050565b6000610c778383610c03565b60a08301905092915050565b6000602082019050919050565b6000610c9b82610b9b565b610ca58185610ba6565b9350610cb083610bb7565b8060005b83811015610ce1578151610cc88882610c6b565b9750610cd383610c83565b925050600181019050610cb4565b5085935050505092915050565b60006020820190508181036000830152610d088184610c90565b905092915050565b600061ffff82169050919050565b610d2781610d10565b82525050565b6000602082019050610d426000830184610d1e565b92915050565b600082825260208201905092915050565b7f4e657720646f6e6f722061646465642100000000000000000000000000000000600082015250565b6000610d8f601083610d48565b9150610d9a82610d59565b602082019050919050565b60006040820190508181036000830152610dbe81610d82565b9050610dcd6020830184610ad7565b92915050565b7f596f752061726520616c726561647920646f6e6f720000000000000000000000600082015250565b6000610e09601583610d48565b9150610e1482610dd3565b602082019050919050565b60006040820190508181036000830152610e3881610dfc565b9050610e476020830184610ad7565b92915050565b7f4e487b7100000000000000000000000000000000000000000000000000000000600052601160045260246000fd5b6000610e87826109f6565b91507fffffffffffffffffffffffffffffffffffffffffffffffffffffffffffffffff821415610eba57610eb9610e4d565b5b600182019050919050565b7f4e65772063686172697479206164646564210000000000000000000000000000600082015250565b6000610efb601283610d48565b9150610f0682610ec5565b602082019050919050565b60006040820190508181036000830152610f2a81610eee565b9050610f396020830184610ad7565b92915050565b7f596f752061726520616c72656164792063686172697479000000000000000000600082015250565b6000610f75601783610d48565b9150610f8082610f3f565b602082019050919050565b60006040820190508181036000830152610fa481610f68565b9050610fb36020830184610ad7565b92915050565b7f4e487b7100000000000000000000000000000000000000000000000000000000600052604160045260246000fd5b7f4e487b7100000000000000000000000000000000000000000000000000000000600052603260045260246000fdfea264697066735822122061c5260fd0b40d4fb06fc6f28a7585cf4c19f73870e49bd3f88b1aec6bc0d0d364736f6c63430008090033",
  "immutableReferences": {},
  "source": "// SPDX-License-Identifier: MIT\r\npragma solidity >=0.4.22 <0.9.0;\r\n\r\ncontract RebelsFund {\r\n  event SignatureAdded(string message, bytes32 name);\r\n  struct Charity{\r\n    address adr;\r\n    bytes32 name;\r\n    uint monthAmount;\r\n    uint recievedAmount;\r\n    bool exist;\r\n  }\r\n  struct User{\r\n    bytes32 name;\r\n    bool exist;\r\n  }\r\n  mapping (address => User) public user;\r\n  mapping (address => Charity) public charity;\r\n  \r\n  mapping (uint => address) private charityAddresses;\r\n  uint charityAddressesCount;\r\n \r\n\r\n  function transferEther(address payable receiverAdr) external {\r\n    if(charity[receiverAdr].exist){\r\n      receiverAdr.transfer(1 ether);\r\n    }\r\n  }\r\n  function signCharity(bytes32 name, uint monthAmount) public {\r\n    if(!charity[msg.sender].exist){\r\n      charity[msg.sender] = Charity(msg.sender,name, monthAmount, 0, true);\r\n      charityAddresses[charityAddressesCount] = msg.sender;\r\n      charityAddressesCount++;\r\n      emit SignatureAdded(\"New charity added!\", name);\r\n    }else{\r\n      emit SignatureAdded(\"You are already charity\", name);\r\n    }\r\n  }\r\n\r\n  function signUser(bytes32 name) public {\r\n    if(!user[msg.sender].exist){\r\n      user[msg.sender] = User(name,true);\r\n      emit SignatureAdded(\"New donor added!\", name);\r\n    }else{\r\n      emit SignatureAdded(\"You are already donor\", name);\r\n    }\r\n  }\r\n\r\n  function getRole() public view returns(uint16){\r\n    if(charity[msg.sender].exist){\r\n      return 1;\r\n    }else if(user[msg.sender].exist){\r\n      return 2;\r\n    }else{\r\n      return 0;\r\n    }\r\n  }\r\n\r\n  function getAllCharity() public view returns (Charity[] memory){\r\n    Charity[] memory charities = new Charity[](charityAddressesCount);\r\n    for (uint i = 0; i < charityAddressesCount; i++) {\r\n        Charity storage charitie = charity[charityAddresses[i]];\r\n        charities[i] = charitie;\r\n    }\r\n    return charities;\r\n  }\r\n}",
  "sourcePath": "D:\\IIP\\RebelsFund\\contracts\\RebelsFund.sol",
  "compiler": {
    "name": "solc",
    "version": "0.8.9+commit.e5eed63a.Emscripten.clang"
  },
  "schemaVersion": "3.4.3",
  "updatedAt": "2021-11-05T14:04:23.487Z",
  "networkType": "ethereum",
  "devdoc": {
    "kind": "dev",
    "methods": {},
    "version": 1
  },
  "userdoc": {
    "kind": "user",
    "methods": {},
    "version": 1
  }
}